:100000000C9473000C949B000C949B000C94F802CD
:100010000C94F8020C94F8020C949B000C949B0036
:100020000C949B000C949B000C949B000C949B00E4
:100030000C949B000C949B000C949B000C949B00D4
:100040000C94AE020C949B000C94FC080C94D60803
:100050000C949B000C949B000C949B000C949B00B4
:100060000C949B000C949B00005EBCE2613FDD831E
:10007000C29C7E20A3FD1F41009D23BE46DB65F888
:100080008C11AF32CA57E974000000002400270029
:100090002A0000000008000201000003040700001D
:1000A00000000000000000000000230026002900DE
:1000B00000000000250028002B00040404040404B0
:1000C0000404020202020202030303030303010207
:1000D00004081020408001020408102001020408D6
:1000E00010202E0E3A0B11241FBECFEFD8E0DEBF3A
:1000F000CDBF12E0A0E0B1E0EEEDF8E202C0059065
:100100000D92AE3AB107D9F724E0AEEAB2E001C0F1
:100110001D92AF34B207E1F710E0C2E7D0E004C0AF
:100120002197FE010E946D11C137D107C9F70E94C6
:10013000560B0C9462140C940000FC01918D228DDE
:10014000892F90E0805C9F4F821B91098F739927C4
:10015000089580E090E0892B29F00E945D088111CC
:100160000C9400000895833081F028F4813099F0D8
:100170008230A1F008958730A9F08830B9F084303A
:10018000D1F4809180008F7D03C0809180008F77B3
:1001900080938000089584B58F7702C084B58F7DE9
:1001A00084BD08958091B0008F7703C08091B00026
:1001B0008F7D8093B00008953FB7F89480911D0320
:1001C00090911E03A0911F03B091200326B5A89B18
:1001D00005C02F3F19F00196A11DB11D3FBFBA2FD9
:1001E000A92F982F8827820F911DA11DB11DBC0139
:1001F000CD0142E0660F771F881F991F4A95D1F7FE
:1002000008952FB7F8946091190370911A038091A3
:100210001B0390911C032FBF08950E94010128EE3B
:1002200033E040E050E00E943711CA01B90108955F
:1002300020912303309124032817390771F49091FA
:10024000210380912203981741F0E0912103F0E00F
:10025000E852FD4F808190E008958FEF9FEF089561
:1002600008951F93CF93DF93DC015C968D919C9151
:100270005D97009739F421E030E013963C932E937C
:1002800012973BC05196ED91FC91529750962C914C
:100290005097322F30951FB75E964C915E97742F12
:1002A000727041FD6095F8944081772311F0422BE4
:1002B00001C043234083EC012197F1F748E05081CE
:1002C00060FF02C0522B01C053235083EC012197E1
:1002D000F1F76695415099F78081772319F08323D0
:1002E000808302C0282B20831FBF5C968D919C9138
:1002F0005D970197F1F781E090E0DF91CF911F9139
:10030000089520912303309124032817390771F4AD
:10031000809122032091210390E0805C9F4F821BFB
:10032000910960E470E00E942311089580E090E05C
:100330000895209123033091240328173907B9F435
:100340009091210380912203981789F0E091210375
:10035000F0E0E852FD4F80812091210330E02F5FD3
:100360003F4F2F7333272093210390E008958FEFA1
:100370009FEF0895089580E090E00895FC01848D3A
:10038000DF01A80FB11DA35ABF4F2C91848D90E0BF
:1003900001968F739927848FA689B7892C93A0899A
:1003A000B1898C91837080648C93938D848D981324
:1003B00006C00288F389E02D80818F7D80830895B7
:1003C000CF93DF93282F30E0F901EE56FF4F849151
:1003D000F901E253FF4FD491F901E654FF4FC49164
:1003E000CC2391F081110E94B300EC2FF0E0EE0FCE
:1003F000FF1FEA55FF4FA591B491EC91ED2381E0E9
:1004000090E021F480E002C080E090E0DF91CF91A5
:1004100008951F93CF93DF93282F30E0F901EE5614
:10042000FF4F8491F901E253FF4FD491F901E65453
:10043000FF4FC491CC23C1F0162F81110E94B3004D
:10044000EC2FF0E0EE0FFF1FE055FF4FA591B491A8
:100450009FB7F894111104C08C91D095D82302C095
:10046000EC91DE2BDC939FBFDF91CF911F9108951C
:10047000CF93DF9390E0FC01E253FF4F2491FC0106
:10048000E654FF4F8491882361F190E0880F991F13
:10049000FC01E857FF4FC591D491FC01E055FF4F97
:1004A000A591B491611109C09FB7F89488812095F6
:1004B00082238883EC912E230BC0623061F49FB7B6
:1004C000F8948881322F309583238883EC912E2BEA
:1004D0002C939FBF06C08FB7F894E8812E2B2883FA
:1004E0008FBFDF91CF9108958F929F92AF92BF926D
:1004F000CF92DF92EF92FF926B017C010E94DC00B1
:100500004B015C01C114D104E104F104F1F00E943B
:10051000DC00DC01CB0188199909AA09BB09883ED6
:100520009340A105B10570F321E0C21AD108E1089A
:10053000F10888EE880E83E0981EA11CB11CC1143E
:10054000D104E104F10419F7DDCFFF90EF90DF90C3
:10055000CF90BF90AF909F908F9008951F920F9271
:100560000FB60F9211242F933F938F939F93AF93C6
:10057000BF938091190390911A03A0911B03B0912E
:100580001C033091180323E0230F2D3720F401962C
:10059000A11DB11D05C026E8230F0296A11DB11DA6
:1005A000209318038093190390931A03A0931B03BD
:1005B000B0931C0380911D0390911E03A0911F0313
:1005C000B09120030196A11DB11D80931D0390934E
:1005D0001E03A0931F03B0932003BF91AF919F917F
:1005E0008F913F912F910F900FBE0F901F901895F4
:1005F0001F920F920FB60F9211242F933F934F9398
:100600005F936F937F938F939F93AF93BF93EF937A
:10061000FF93E0912303F0912403309709F451C034
:10062000968DA685B785858591FF04C09C91892309
:1006300029F447C09C91892309F043C0A389B48958
:100640009C918589809589238C93868997890197C8
:10065000F1F7608D718DA685B785558538E020E06E
:10066000CB010197F1F7822F90E095958795282F80
:100670004C91452309F02068315091F7868D81FD1A
:1006800020958091220390E001968F7399273091F5
:100690002103381749F0A0912203B0E0A852BD4FC2
:1006A0002C938093220303C0868D8160868F828D78
:1006B000938D0197F1F7A389B4899C918589892B42
:1006C0008C93FF91EF91BF91AF919F918F917F910B
:1006D0006F915F914F913F912F910F900FBE0F90AF
:1006E0001F901895DC0180E0615098F02D91982FB3
:1006F0009227E92FEF70F0E0E859FF4F249192958F
:100700009F70E92FF0E0E858FF4FE491822F8E2789
:10071000EBCF0895FC0190810180F281E02DF894E7
:100720008181892B81832281892F809528232283AF
:10073000A7E0B0E01197F1F7218182238183A3E242
:10074000B0E01197F1F780817894EFECF0E0319709
:10075000F1F7982381E009F480E00895FC0190818D
:100760000180F281E02D892F809560FF12C0F894FE
:100770002281822382838181892B8183A3E2B0E05D
:100780001197F1F78281982B9283789487ED90E00E
:1007900011C0F8942281822382838181892B8183F5
:1007A000AFEFB0E01197F1F78281982B92837894A4
:1007B0008FE090E00197F1F70895DF92EF92FF92BA
:1007C0000F931F93CF93DF93EC01D62EE42E08E016
:1007D00010E0FF24F39461E08D2D8F2109F460E097
:1007E000CE010E94AE03FF0C01501109A1F7E110E8
:1007F00010C0F894E981FA819181888180958923DC
:100800008183E981FA81928188818095892382831D
:100810007894DF91CF911F910F91FF90EF90DF902F
:100820000895EF92FF920F931F93CF93DF938C0164
:100830007B0140E065E50E94DD03E70188E0E80E0A
:10084000F11C699140E0C8010E94DD03CE15DF056F
:10085000C1F7DF91CF911F910F91FF90EF90089515
:10086000DC012C911196ED91FC911297F894818105
:10087000922F90958923818378948DE743E050E00F
:10088000815021F1DA011197F1F730813223C1F360
:10089000F8948281892382838181822B8183789459
:1008A000ABE7B7E01197F1F7F89481819823918332
:1008B00083E191E00197F1F78081282381E009F03D
:1008C00080E07894E3E6F6E03197F1F708958F92AF
:1008D0009F92AF92BF92CF92DF92EF92FF920F93CF
:1008E0001F93CF93DF938C017A01FC01868197815E
:1008F0000E94110440E06EEBF801868197810E940E
:10090000DD03E7015701F9E0AF0EB11CF801868065
:10091000978088E0C82ED12CF12CEE24E394C401FA
:100920000E948A038111FE28EE0CF1E0CF1AD10853
:10093000B1F7F992AC16BD0649F7F80186819781A7
:100940000E94300491E0813009F090E0892FDF911E
:10095000CF911F910F91FF90EF90DF90CF90BF90BC
:10096000AF909F908F900895EF92FF920F931F93F7
:10097000CF93DF93CDB7DEB729970FB6F894DEBFDC
:100980000FBECDBF8C017B01FC01868197810E9447
:100990003004882311F1AE014F5F5F4FB701C801EA
:1009A0000E9467048823C9F068E0CE0101960E9486
:1009B00072039985891311C08D818F3361F020F402
:1009C0008F3159F489E00CC08F3519F08F3739F029
:1009D00004C08BE005C08AE003C080E001C08CE069
:1009E00029960FB6F894DEBF0FBECDBFDF91CF9131
:1009F0001F910F91FF90EF9008958F929F92AF9269
:100A0000BF92CF92DF92EF92FF920F931F93CF93FB
:100A1000DF93EC018E819F810E94300440E06CECFA
:100A20008E819F810E94DD03488164E48E819F81D5
:100A30000E94DD038A81882309F442C0E981E950DC
:100A4000E33040F4F0E0EE0FFF1FE050FF4F008175
:100A5000118102C00EEE12E08B818823F9F08881AB
:100A600081111CC00E9401014B015C016801110F42
:100A7000EE08FF088E819F810E948A03813001F178
:100A80000E940101DC01CB018C199D09AE09BF094F
:100A900088159905AA05BB0568F312C0B801110FA6
:100AA000880B990BDF91CF911F910F91FF90EF90E1
:100AB000DF90CF90BF90AF909F908F900C94740276
:100AC000DF91CF911F910F91FF90EF90DF90CF902A
:100AD000BF90AF909F908F900895EF92FF920F93E9
:100AE0001F93CF93DF93CDB7DEB728970FB6F89457
:100AF000DEBF0FBECDBF8C01DC011696ED91FC91DF
:100B00001797138615861486DF011B9633961E925F
:100B1000EA17FB07E1F7F80114821582EE24E3944B
:100B2000BE016F5F7F4FD80116968D919C911797EC
:100B30000E94EF09882309F475C067E0CE01019691
:100B40000E94720398858913EBCFF801808181118F
:100B500024C0868197810E943004BE016F5F7F4F61
:100B6000D80116968D919C9117970E94110440E030
:100B700064EBF801868197810E94DD03D801169607
:100B80008D919C9117970E948A03F82EF801868117
:100B900097810E943004FF20B1F1D8011196FC909A
:100BA00089818031D9F1BE016F5F7F4FC8010E94FA
:100BB000B4048F1518F4F80181810BC0898180314C
:100BC00011F48CE006C0BE016F5F7F4FC8010E9428
:100BD000B404D80111968C93119714968C911497A4
:100BE0008F5F14968C938981883281F030F4803144
:100BF00069F0823209F094CF09C08B3339F0823426
:100C000009F08ECF03C0F801E082C7CFD801159656
:100C10008C9115978F5F15968C9382CFBCE0BF1592
:100C200050F2CFCF28960FB6F894DEBF0FBECDBFDF
:100C3000DF91CF911F910F91FF90EF9008956EEF8C
:100C400089E094E00E94310160E889E094E00C942E
:100C500031016EEF89E094E00E94310161E089E0AA
:100C600094E00C9431016115710579F0FB0101905C
:100C70000020E9F73197AF01461B570BDC01ED91DE
:100C8000FC910280F381E02D099480E090E00895CA
:100C9000CF93DF930E9429060E941F060E944209FB
:100CA0006C3371058105910550F40E9442096093EF
:100CB000D4027093D5028093D6029093D7020E94FB
:100CC00042096C33710581059105A0F00E9442092B
:100CD0000E94C60F20E030E040E752E40E940E1070
:100CE0000E94970F6093D4027093D5028093D6022E
:100CF0009093D7028091D4029091D502A091D60210
:100D0000B091D702CB97A105B10598F08091D002A0
:100D10009091D102A091D202B091D3020196A11D6F
:100D2000B11D8093D0029093D102A093D202B093D0
:100D3000D3028091D0029091D102A091D202B091C1
:100D4000D302CB97A105B105D8F08091CC02909148
:100D5000CD02A091CE02B091CF020196A11DB11D8E
:100D60008093CC029093CD02A093CE02B093CF0299
:100D70001092D0021092D1021092D2021092D3029D
:100D80006AE271E084E493E00E9433066091CC0251
:100D90007091CD028091CE029091CF024AE00E94E4
:100DA000780962E371E084E493E00E943306609185
:100DB000D0027091D1028091D2029091D3024AE088
:100DC0000E9478096DE371E084E493E00E943306A9
:100DD0006091D4027091D5028091D6029091D70291
:100DE0004AE00E94780968E471E084E493E00E949C
:100DF00033060E9442094AE00E94780968E571E0E2
:100E000084E493E00E9433068091CF028F93809117
:100E1000CE028F938091CD028F938091CC028F93DD
:100E2000CBE5D1E0DF93CF9382EC92E09F938F9359
:100E30000E9478118091D3028F938091D2028F9378
:100E40008091D1028F938091D0028F93DF93CF93C3
:100E500088EB92E09F938F930E9478118091D70244
:100E60008F938091D6028F938091D5028F9380913A
:100E7000D4028F93DF93CF938EEA92E09F938F9368
:100E80000E9478116FE571E089E094E00E943306DA
:100E900062EC72E089E094E00E94330660E771E062
:100EA00089E094E00E94330668EB72E089E094E008
:100EB0000E94330660E771E089E094E00E94330607
:100EC0006EEA72E089E094E00E9433068DB79EB727
:100ED00048960FB6F8949EBF0FBE8DBF64EF71E0C9
:100EE00080E090E0DF91CF910C947402CF92DF927A
:100EF000EF92FF920F931F936C0181E090E090932B
:100F00002703809326038DE00E94E001892B11F0D6
:100F10000E942E0962E771E084E493E00E943306A8
:100F20000D2C000CEE08FF080E9442098B019C0169
:100F300061E070E080E090E00C151D052E053F0596
:100F400018F460E070E0CB014AE00E94780968E59F
:100F500071E084E493E00E9433060E9442096C151C
:100F60007D058E059F0508F180912503882361F09A
:100F700060E08AE00E94090260E08BE00E940902C2
:100F80000E942E09109225038091250381110DC026
:100F900061E08AE00E94090261E08BE00E940902A0
:100FA0000E942E0981E0809325030E9442096C155E
:100FB0007D058E059F05E8F480912503882359F06F
:100FC00061E08AE00E94090261E08BE00E94090270
:100FD00081E0809325038091250381110AC060E0A0
:100FE0008AE00E94090260E08BE00E9409021092F0
:100FF00025031F910F91FF90EF90DF90CF90089500
:10100000CF92DF92EF92FF920F931F93CF93DF93D4
:101010006C017A018B01C0E0D0E0CE15DF0581F0D4
:10102000D8016D918D01D601ED91FC910190F08177
:10103000E02DC6010995892B11F02196EECF7E0196
:10104000C701DF91CF911F910F91FF90EF90DF903B
:10105000CF900895FC01538D448D252F30E0842FCF
:1010600090E0821B930B541710F0CF9608950197D0
:101070000895FC01918D828D981761F0828DDF01BA
:10108000A80FB11D5D968C91928D9F5F9F73928F7B
:1010900090E008958FEF9FEF0895FC01918D828D70
:1010A000981731F0828DE80FF11D858D90E008953D
:1010B0008FEF9FEF08950E94731184E493E00E94E4
:1010C0009D0021E0892B09F420E0822F0895EF9202
:1010D000FF920F931F93CF93DF93EC0181E0888FF2
:1010E0009B8D8C8D981305C0E889F989808185FDD9
:1010F00026C0F62E0B8D10E00F5F1F4F0F731127C8
:10110000E02E8C8DE8120CC00FB607FCFACFE889F0
:10111000F989808185FFF5CFCE010E94BE01F1CF14
:101120008B8DFE01E80FF11DE35AFF4FF0829FB750
:10113000F8940B8FEA89FB89808180620AC09FB78F
:10114000F894EE89FF896083E889F989808183704A
:10115000806480839FBF81E090E0DF91CF911F91F9
:101160000F91FF90EF900895CF93DF93EC01888D5E
:101170008823C9F0EA89FB89808185FD05C0A8899B
:10118000B9898C9186FD0FC00FB607FCF5CF808121
:1011900085FFF2CFA889B9898C9185FFEDCFCE016B
:1011A0000E94BE01E7CFDF91CF9108951F920F9269
:1011B0000FB60F9211242F933F934F935F936F932A
:1011C0007F938F939F93AF93BF93EF93FF9384E4A9
:1011D00093E00E94BE01FF91EF91BF91AF919F916B
:1011E0008F917F916F915F914F913F912F910F90D0
:1011F0000FBE0F901F9018951F920F920FB60F926F
:1012000011242F938F939F93EF93FF93E0915403B7
:10121000F09155038081E0915A03F0915B0382FDC8
:1012200012C0908180915D038F5F8F7320915E0368
:10123000821751F0E0915D03F0E0EC5BFC4F958F7D
:1012400080935D0301C08081FF91EF919F918F9109
:101250002F910F900FBE0F901F901895CF93DF9393
:10126000C8E2D4E0E885F9850995688379838A83A3
:101270009B831C821D821E821F8281E08A87DF91F0
:10128000CF910895CF92DF92EF92FF920F931F9329
:10129000C0902C04D0902D04E0902E04F0902F04E8
:1012A000809132048823A1F0E0913004F091310460
:1012B0000995009128041091290420912A04309165
:1012C0002B04DC01CB01801B910BA20BB30B03C0E1
:1012D00080E090E0DC01BC01CD016C0D7D1D8E1D18
:1012E0009F1D1F910F91FF90EF90DF90CF90089579
:1012F0008F929F92AF92BF920F931F93CF93DF93E2
:10130000CDB7DEB7A1970FB6F894DEBF0FBECDBF45
:1013100019A2423008F44AE08E010F5D1F4F842E5F
:10132000912CA12CB12CA50194010E943711E62F1C
:10133000B901CA0101501109EA3014F4E05D01C09D
:10134000E95CD801EC93232B242B252B61F7B80102
:1013500084E493E00E943306A1960FB6F894DEBFB2
:101360000FBECDBFDF91CF911F910F91BF90AF9076
:101370009F908F900895CF92DF92EF92FF92CF933C
:10138000DF936B017C016DE284E493E00E946708C7
:10139000EC0166277727CB016C197D098E099F091F
:1013A0004AE00E9478098C0F9D1FDF91CF91FF903A
:1013B000EF90DF90CF900895CF93DF93BC0184E44A
:1013C00093E00E943306EC0168E571E084E493E069
:1013D0000E9433068C0F9D1FDF91CF910895BF921D
:1013E000CF92DF92EF92FF920F931F93CF93DF93F1
:1013F000EC016B018D85811105C0CE010E94300486
:10140000811105C01B861D861C8680E060C040E0FF
:1014100060EFCE010E94DD0301E0E12CB12C11E070
:10142000CE010E948A03F82ECE010E948A0391E029
:10143000F91203C08130B1F434C02E2D30E0F8121F
:101440001BC08B85181738F4FE01E20FF31F838150
:10145000802341F402C0811729F0F12C193058F48F
:101460001C8709C0FE01EE0DF11D8381802B838353
:10147000FF24F39409C0B12EFE01E20FF31F938104
:10148000802F8095892383836F2DCE010E94AE0328
:101490001F5F000F11F4E39401E087E08E1508F060
:1014A000BFCF113408F4AECFBB86B11002C081E0CB
:1014B0008D878B81882309F4A5CFDE011396F60171
:1014C0002B968D918193CA17DB07D9F781E0DF91C5
:1014D000CF911F910F91FF90EF90DF90CF90BF9031
:1014E00008950F931F93CF93DF93CDB7DEB7619726
:1014F0000FB6F894DEBF0FBECDBF8C01DC0116968F
:10150000ED91FC911797138615861486DF011B96C3
:1015100033961E92AE17BF07E1F7BE01665F7F4F9D
:10152000F801868197810E94EF09882341F067E0E6
:10153000CE010A960E9472039989891729F060E00A
:1015400070E08EEF92EC60C0D80116968D919C9160
:1015500017970E943004882309F453C0AE014F5FEF
:101560005F4FBE01665F7F4FC8010E9467048823FA
:1015700009F447C068E0CE0101960E947203998584
:1015800089133FC02A8130E0C901982F8827990F1D
:10159000990F990F6981F8E06F9FB00111249C01A8
:1015A000262B372B8A858031C9F4688570E08F81BE
:1015B000AB01481B5109CA019695982F882797952A
:1015C00087950E94231160517109207F53E0220FFB
:1015D000331F5A95E1F7620F731F01C0B9016138DB
:1015E00054EE75070CF4ABCF072E000C880B990B4B
:1015F0000E94C80F20E030E040E05CE30E94B6109B
:1016000003C060E874EEEBCF61960FB6F894DEBFCE
:101610000FBECDBFDF91CF911F910F9108951F9302
:10162000CF93DF93EC01162F60E0812F0E943802E8
:10163000612F70E0FB01E253FF4FE491E883FB016F
:10164000E654FF4FE491F0E0EE0FFF1FEA55FF4F25
:10165000859194919A8389831B861D861C86FE0141
:101660003B9623961292EC17FD07E1F7DF91CF919D
:101670001F9108958CE191E090930A0480930904EE
:1016800080912303909124038950944071F4E09158
:101690001C04F0911D04908180911E048095892383
:1016A000808310922403109223030895789484B5C4
:1016B000826084BD84B5816084BD85B5826085BD4E
:1016C00085B5816085BD80916E00816080936E00DC
:1016D00010928100809181008260809381008091CE
:1016E000810081608093810080918000816080937F
:1016F00080008091B10084608093B1008091B0003F
:1017000081608093B00080917A00846080937A0039
:1017100080917A00826080937A0080917A00816063
:1017200080937A0080917A00806880937A0010928A
:10173000C100E0915403F091550382E08083E09171
:101740005003F09151031082E0915203F091530342
:101750008FEC808310925C03E0915803F091590361
:1017600086E08083E0915603F09157038081806189
:101770008083E0915603F0915703808188608083D5
:10178000E0915603F0915703808180688083E09157
:101790005603F091570380818F7D808386E891E026
:1017A0000E94DC098CE991E00E94DC0960E08CE099
:1017B0000E94380260E08DE00E94380284EB91E0E4
:1017C0000E94DC098BEC91E00E94DC0961E08AE078
:1017D0000E94380261E08BE00E94380285EE91E0C1
:1017E0000E94DC0985EF93E00E946D0581EE93E095
:1017F0000E946D058EEF91E00E94DC091092240496
:1018000010922304109222041092210410922004BA
:1018100010921F048DE991E0909326048093250493
:1018200090911504963108F058C02DEB30E03093BC
:10183000200420931F042BE931E0309322042093ED
:1018400021042CE231E030932404209323044091BE
:101850006800983058F031E09E3008F430E021E024
:10186000822F01C0880F3A95EAF701C084E0842BEB
:1018700080936800983038F09E3040F0963148F000
:1018800020E030E008C02DE630E005C02BE630E077
:1018900002C02CE630E030931D0420931C049830E5
:1018A00030F481E001C0880F9A95EAF70EC0292F25
:1018B00030E09E3018F42850310902C02E50310912
:1018C00081E001C0880F2A95EAF780931E04809179
:1018D0002504909126040197F1F7809123049091BB
:1018E0002404892B49F1E0912303F091240384E03F
:1018F000E930F80709F1309739F0A389B4899C9150
:101900008589809589238C93809127048E7F80938D
:101910002704109222031092210389E094E090930F
:10192000240380932303E0911C04F0911D04908113
:1019300080911E04892B808364EF71E080E090E049
:101940000E9474020E941F060E9429066DE072E048
:1019500089E094E00E9433066EE172E089E094E051
:101960000E94330668EB7BE080E090E00E94740206
:101970000E9429068FE292E00E94DC090BE511E04B
:1019800086E3282E83E0382E9CE2C92E93E0D92EE0
:10199000EE24E394F12C8CE00E94E001009721F00A
:1019A000019709F428C151C182E492E00E94DC0948
:1019B000109227031092260385EF93E00E94FD0406
:1019C00081EE93E00E94FD0485EF93E00E94710A8E
:1019D0002B013C0181EE93E00E94710A4B015C01F6
:1019E000C301B2010E94900F072E000C880B990BC7
:1019F0000E94C80F26E636E646EE5FE30E94B61068
:101A000020E030E040E052E40E94240F0E94900F5A
:101A1000762EC62FD72F872D972F90934303809331
:101A20004203C501B4010E94900F072E000C880BE1
:101A3000990B0E94C80F26E636E646EE5FE30E9449
:101A4000B61020E030E040E052E40E94240F0E94F3
:101A5000900FB62E6093400370934103672D89E089
:101A600094E00E9431016B2D89E094E00E943101E5
:101A70000E941F06CE34D1055CF461E08AE00E942A
:101A8000090281E080932B0383E592E00E94DC0948
:101A900080914203909143038E34910554F060E0AD
:101AA0008AE00E94090210922B0381E692E00E94D4
:101AB000DC0980914003909141038E3491055CF4E0
:101AC00061E08BE00E94090281E080932A0380E7B5
:101AD00092E00E94DC0980914003909141038E3492
:101AE000910554F060E08BE00E94090210922A03F5
:101AF0008EE792E00E94DC096DE872E084E493E0F6
:101B00000E9433066091420370914303072E000C3C
:101B1000880B990B97FF03C00E94BB0903C04AE0E2
:101B20000E94780966E972E084E493E00E9433063B
:101B30006091400370914103072E000C880B990BB4
:101B400097FF03C00E94BB0903C04AE00E947809C6
:101B500068E571E084E493E00E9433068AE591E051
:101B60000E94DC090E9429060E941F0680914303FF
:101B70008F93809142038F931F930F933F922F92E5
:101B80000E947811809141038F93809140038F933D
:101B90001F930F93DF92CF920E9478116DE872E04D
:101BA00089E094E00E94330666E373E089E094E004
:101BB0000E94330669E172E089E094E00E943306F6
:101BC00067E972E089E094E00E9433066CE273E01A
:101BD00089E094E00E94330668EE73E080E090E0D4
:101BE0000E9474028DB79EB70C960FB6F8949EBFF4
:101BF0000FBE8DBF2AC080EA92E00E94DC0980916E
:101C0000260390912703892B61F48091320481117E
:101C10000E942E09F0922703E092260381E0809330
:101C2000250380912503882331F080E091EE0E9406
:101C300076070E94480680912503811106C080E83E
:101C400090E70E9476070E94480664EF71E080E00A
:101C500090E00E9474020E94A9009DCECF92DF9274
:101C6000EF92FF92109247031092460398EEC92E0E
:101C700093E0D92EE12CF12CC0924803D092490375
:101C8000E0924A03F0924B038AE091E0909345037F
:101C90008093440385EC90E090935103809350032C
:101CA00084EC90E0909353038093520380EC90E097
:101CB000909355038093540381EC90E090935703E5
:101CC0008093560382EC90E09093590380935803DD
:101CD00086EC90E090935B0380935A0310925D032F
:101CE00010925E0310925F03109260038DE091E00A
:101CF00090933104809330040E942E0910920C04BA
:101D000010920B04C0920D04D0920E04E0920F04C6
:101D1000F09210048CE191E090930A0480930904FE
:101D20001092200410921F04109222041092210499
:101D30001092240410922304109226041092250479
:101D4000609127046E7F6D7F6093270466956170B4
:101D500081E0682782E00E94090261E082E00E943F
:101D60003802E0EDF0E0E491E0931904ECEBF0E0F0
:101D7000E491F0E0EE0FFF1FE055FF4F8591949145
:101D800090931B0480931A0460E083E00E94380261
:101D90008091270481FD04C061E083E00E94090274
:101DA00083E080931504E1EDF0E0E491E093160404
:101DB000EDEBF0E0E491F0E0EE0FFF1FEA55FF4F8E
:101DC00085919491909318048093170464E081E4C2
:101DD00094E00E940F0B65E083E394E00E940F0BF8
:101DE00081E494E09093FC038093FB031092F90349
:101DF0001092FA031092F50399E09093F60381E0B4
:101E00008093F7038093F80310920804109207045C
:101E100023E334E03093E8032093E7031092E503D3
:101E20001092E6031092E1039093E2038093E303A0
:101E30008093E4031092F4031092F303FF90EF9069
:101E4000DF90CF9008955058BB27AA270E943B0FE0
:101E50000C947C100E946E1038F00E94751020F0D7
:101E600039F49F3F19F426F40C946B100EF4E095AE
:101E7000E7FB0C945710E92F0E948D1058F3BA1706
:101E8000620773078407950720F079F4A6F50C9490
:101E9000AF100EF4E0950B2EBA2FA02D0B01B90157
:101EA00090010C01CA01A0011124FF27591B99F0D0
:101EB000593F50F4503E68F11A16F040A22F232FDC
:101EC000342F4427585FF3CF469537952795A7952C
:101ED000F0405395C9F77EF41F16BA0B620B730BD3
:101EE000840BBAF09150A1F0FF0FBB1F661F771F44
:101EF000881FC2F70EC0BA0F621F731F841F48F4F9
:101F0000879577956795B795F7959E3F08F0B0CF81
:101F10009395880F08F09927EE0F97958795089568
:101F20000E94970F6894B1110C94B01008950E940C
:101F3000951088F09F5798F0B92F9927B751B0F0B6
:101F4000E1F0660F771F881F991F1AF0BA95C9F73D
:101F500014C0B13091F00E94AF10B1E008950C941C
:101F6000AF10672F782F8827B85F39F0B93FCCF3CF
:101F7000869577956795B395D9F73EF490958095BA
:101F8000709561957F4F8F4F9F4F0895E89409C0DA
:101F900097FB3EF490958095709561957F4F8F4F9C
:101FA0009F4F9923A9F0F92F96E9BB279395F695B2
:101FB000879577956795B795F111F8CFFAF4BB0F30
:101FC00011F460FF1BC06F5F7F4F8F4F9F4F16C094
:101FD000882311F096E911C0772321F09EE8872F1E
:101FE000762F05C0662371F096E8862F70E060E0DA
:101FF0002AF09A95660F771F881FDAF7880F969553
:10200000879597F908950E946E1020F019F00E94AC
:10201000751050F40C946B100C94B010E92F0E94C2
:102020008D1088F35523B1F3E7FB6217730784071C
:102030009507A8F189F3E92FFF2788232AF0319724
:10204000660F771F881FDAF7952F5527442332F044
:1020500091505040220F331F441FD2F7BB27E91B7A
:10206000F50B621B730B840BB109B1F222F4620F02
:10207000731F841FB11D31972AF0660F771F881FC9
:10208000BB1FEFCF9150504062F041F0882332F0F7
:10209000660F771F881F91505040C1F793950C949D
:1020A0005D108695779567959F5FD9F7F7CF97F97C
:1020B0009F6780E870E060E008959F3F31F09150A5
:1020C00020F4879577956795B795880F911D96951C
:1020D000879597F908959FEF80EC089500240A945E
:1020E0001616170618060906089500240A941216F3
:1020F0001306140605060895092E0394000C11F426
:10210000882352F0BB0F40F4BF2B11F460FF04C0D2
:102110006F5F7F4F8F4F9F4F089557FD9058440F2B
:10212000551F59F05F3F71F04795880F97FB991F36
:1021300061F09F3F79F087950895121613061406F3
:10214000551FF2CF4695F1DF08C016161706180680
:10215000991FF1CF86957105610508940895E8945B
:10216000BB2766277727CB0197F908950E94C910EE
:102170000C947C100E946E1038F00E94751020F0B4
:10218000952311F00C9457100C946B1011240C949F
:10219000B0100E948D1070F3959FC1F3950F50E021
:1021A000551F629FF001729FBB27F00DB11D639F09
:1021B000AA27F00DB11DAA1F649F6627B00DA11DAF
:1021C000661F829F2227B00DA11D621F739FB00D55
:1021D000A11D621F839FA00D611D221F749F3327C5
:1021E000A00D611D231F849F600D211D822F762F5E
:1021F0006A2F11249F5750409AF0F1F088234AF03B
:10220000EE0FFF1FBB1F661F771F881F91505040A6
:10221000A9F79E3F510580F00C9457100C94B01014
:102220005F3FE4F3983ED4F3869577956795B7952D
:10223000F795E7959F5FC1F7FE2B880F911D969547
:10224000879597F9089597FB072E16F4009407D009
:1022500077FD09D00E94591107FC05D03EF49095F6
:1022600081959F4F0895709561957F4F0895A1E2E4
:102270001A2EAA1BBB1BFD010DC0AA1FBB1FEE1F00
:10228000FF1FA217B307E407F50720F0A21BB30B4B
:10229000E40BF50B661F771F881F991F1A9469F7C7
:1022A00060957095809590959B01AC01BD01CF0123
:1022B0000895AA1BBB1B51E107C0AA1FBB1FA6178D
:1022C000B70710F0A61BB70B881F991F5A95A9F7DF
:1022D00080959095BC01CD010895EE0FFF1F0590EC
:1022E000F491E02D099481E090E0F8940C9462144C
:1022F000AEE0B0E0EEE7F1E10C9439140D891E89EF
:1023000086E08C831A8309838FEF9FE79E838D83FA
:10231000AE01475E5F4F6F89788DCE0101960E94B6
:102320009A11EF81F885E00FF11F10822E96E4E0FC
:102330000C945514ABE0B0E0E0EAF1E10C942B14FE
:102340006C017B018A01FC0117821682838181FF67
:10235000CCC1CE0101963C01F6019381F70193FDBA
:10236000859193FF81917F01882309F4BAC1853259
:1023700039F493FD859193FF81917F01853229F492
:10238000B60190E00E949113E7CF912C212C312CC3
:10239000FFE1F315D8F08B3279F038F4803279F020
:1023A0008332A1F4232D20611DC08D3261F0803372
:1023B00069F4232D216016C0832D8260382EE32D11
:1023C000E4603E2E2AC0F32DF8601DC037FC2DC0FE
:1023D00020ED280F2A3040F08E32B9F436FC81C14E
:1023E000232D2064322E19C036FE06C08AE0989E46
:1023F000200D1124922E11C0EAE02E9E200D1124F2
:10240000222EF32DF0623F2E08C08C3621F4832D4E
:102410008068382E02C0883641F4F70193FD85911B
:1024200093FF81917F018111B3CF982F9F7D9554A8
:10243000933028F40C5F1F4F9FE399830DC08336C0
:1024400031F0833771F0833509F059C021C0F801AC
:10245000808189830E5F1F4F88248394912C5301C0
:1024600013C02801F2E04F0E511CF801A080B1808A
:1024700036FE03C0692D70E002C06FEF7FEFC5012B
:102480000E9486134C018201F32DFF773F2E16C068
:10249000280122E0420E511CF801A080B18036FED6
:1024A00003C0692D70E002C06FEF7FEFC5010E948D
:1024B0007B134C01F32DF0683F2E820133FC1BC0CF
:1024C000822D90E088169906B0F4B60180E290E083
:1024D0000E9491132A94F4CFF50137FC859137FEC1
:1024E00081915F01B60190E00E94911321102A941E
:1024F00021E0821A91088114910471F7E8C08436B2
:1025000011F0893641F5F80137FE07C0608171810D
:10251000828193810C5F1F4F08C060817181072EFB
:10252000000C880B990B0E5F1F4FF32DFF763F2E8B
:1025300097FF09C090958095709561957F4F8F4F5B
:102540009F4FF0683F2E2AE030E0A3010E94CD1398
:10255000882E861845C0853731F4232D2F7EB22E64
:102560002AE030E025C0932D997FB92E8F36C1F037
:1025700018F4883579F0B5C0803719F0883721F024
:10258000B0C0E92FE061BE2EB4FE0DC0FB2DF4609B
:10259000BF2E09C034FE0AC0292F2660B22E06C005
:1025A00028E030E005C020E130E002C020E132E068
:1025B000F801B7FE07C060817181828193810C5F51
:1025C0001F4F06C06081718180E090E00E5F1F4F59
:1025D000A3010E94CD13882E8618FB2DFF773F2E76
:1025E00036FE0DC0232D2E7FA22E891458F434FE02
:1025F0000BC032FC09C0832D8E7EA82E05C0B82CDE
:10260000A32C03C0B82C01C0B92CA4FE0FC0FE013E
:10261000E80DF11D8081803321F49A2D997EA92E39
:1026200009C0A2FE06C0B394B39404C08A2D867874
:1026300009F0B394A3FC11C0A0FE06C0B21488F444
:10264000280C922C9B180EC0B21460F4B60180E2E4
:1026500090E00E949113B394F7CFB21418F42B18A2
:1026600002C0982C212CA4FE10C0B60180E390E09B
:102670000E949113A2FE17C0A1FC03C088E790E05E
:1026800002C088E590E0B6010CC08A2D867859F02A
:10269000A1FE02C08BE201C080E2A7FC8DE2B60180
:1026A00090E00E949113891438F4B60180E390E021
:1026B0000E9491139A94F7CF8A94F301E80DF11DCB
:1026C0008081B60190E00E9491138110F5CF222005
:1026D00009F442CEB60180E290E00E9491132A9460
:1026E000F6CFF6018681978102C08FEF9FEF2B9680
:1026F000E2E10C944714FC01059061507040011018
:10270000D8F7809590958E0F9F1F0895FC0161501A
:10271000704001900110D8F7809590958E0F9F1F03
:1027200008950F931F93CF93DF93FB01238121FD26
:1027300003C08FEF9FEF2CC022FF16C04681578148
:10274000248135814217530744F4A081B1819D0152
:102750002F5F3F4F318320838C93268137812F5FFA
:102760003F4F3783268314C08B01EC01FB010084AB
:10277000F185E02D0995892BE1F6D80116968D910A
:102780009C911797019617969C938E931697CE015E
:10279000DF91CF911F910F910895FA01AA27283058
:1027A00051F1203181F1E8946F936E7F6E5F7F4F1E
:1027B0008F4F9F4FAF4FB1E03ED0B4E03CD0670F9A
:1027C000781F891F9A1FA11D680F791F8A1F911DED
:1027D000A11D6A0F711D811D911DA11D20D009F43D
:1027E00068943F912AE0269F11243019305D31937F
:1027F000DEF6CF010895462F4770405D4193B3E068
:102800000FD0C9F7F6CF462F4F70405D4A3318F00E
:10281000495D31FD4052419302D0A9F7EACFB4E0BF
:10282000A6959795879577956795BA95C9F7009777
:102830006105710508959B01AC010A2E0694579518
:10284000479537952795BA95C9F7620F731F841F6F
:10285000951FA01D08952F923F924F925F926F9205
:102860007F928F929F92AF92BF92CF92DF92EF9220
:10287000FF920F931F93CF93DF93CDB7DEB7CA1BA1
:10288000DB0B0FB6F894DEBF0FBECDBF09942A88CC
:10289000398848885F846E847D848C849B84AA8474
:1028A000B984C884DF80EE80FD800C811B81AA8101
:1028B000B981CE0FD11D0FB6F894DEBF0FBECDBFCC
:1028C000ED01089510E0C2E7D0E004C0FE010E94CF
:0E28D0006D112196C337D107C9F7F894FFCFD9
:1028DE005E00BC00770100000000670800082A08AF
:1028EE00B4089D0039084D080000000031010008B1
:1028FE00BB013001810199011801486F7572733A5D
:10290E002000204D696E757465733A200020536562
:10291E00636F6E64733A200020456C61707365645A
:10292E002054696D653A20000D0A00253464005468
:10293E00696D652073696E636520737461727400CE
:10294E003A0074696D6572206861732070617373EB
:10295E0065643F3A200053657269616C20506F7256
:10296E007420436F6E6E656374656400436F6E66AC
:10297E0069677572696E67207573657220696E700E
:10298E00757473005573657220696E70757473205B
:10299E00636F6E6669677572656400436F6E666914
:1029AE00677572696E672072656C6179206F7574D8
:1029BE00707574730052656C6179206F75747075E3
:1029CE00747320636F6E6669677572656400536514
:1029DE007474696E67207570204C4344002020206B
:1029EE0020546F6F746965732720202020002047C4
:1029FE00617264656E2043656E7465722020004CB2
:102A0E00434420736574757020636F6D706C6574CC
:102A1E00650048656174696E6720506164204D6F72
:102A2E0064650052656C61792041206973206F6E78
:102A3E000052656C61792041206973206F666600D3
:102A4E0052656C61792042206973206F6E00526569
:102A5E006C61792042206973206F66660054656D43
:102A6E007020413A20002054656D7020423A2000BB
:0E2A7E004C69676874696E67204D6F6465006F
:00000001FF
